:020000040800F2
:100000007006002089010008910100089301000892
:100010009501000897010008990100080000000000
:100020000000000000000000000000009B0100082C
:100030009D010008000000009F0100085106000813
:10004000A3010008A3010008A3010008A301000800
:10005000A3010008A3010008A3010008A3010008F0
:10006000A3010008A3010008A3010008A3010008E0
:10007000A3010008A3010008A3010008A3010008D0
:10008000A3010008A3010008A3010008A3010008C0
:10009000A3010008A3010008A3010008A3010008B0
:1000A000A3010008A3010008A3010008A3010008A0
:1000B000A3010008A3010008A3010008A301000890
:1000C000A3010008A3010008A3010008A301000880
:1000D000A3010008A3010008A3010008A301000870
:1000E000A3010008A3010008A301000800F002F822
:1000F00000F03AF80AA090E8000C82448344AAF188
:100100000107DA4501D100F02FF8AFF2090EBAE885
:100110000F0013F0010F18BFFB1A43F0010318473B
:100120008C070000AC070000103A24BF78C878C1E3
:10013000FAD8520724BF30C830C144BF04680C60ED
:10014000704700000023002400250026103A28BF35
:1001500078C1FBD8520728BF30C148BF0B60704739
:100160001FB51FBD10B510BD00F031F81146FFF7E7
:10017000F7FF00F065FB00F04FF803B4FFF7F2FF64
:1001800003BC00F057F800000948804709480047C1
:10019000FEE7FEE7FEE7FEE7FEE7FEE7FEE7FEE737
:1001A000FEE7FEE704480549054A064B7047000094
:1001B00095070008ED000008700000207006002080
:1001C000700200207002002070477047704775462B
:1001D00000F02CF8AE4605006946534620F00700B3
:1001E000854618B020B5FFF7DDFFBDE820404FF091
:1001F00000064FF000074FF000084FF0000BAC4630
:10020000ACE8C009ACE8C009ACE8C009ACE8C0097A
:1002100021F007018D46704710B50446AFF300800A
:100220002046BDE81040FFF7A8BF00000048704717
:100230000800002001491820ABBEFEE7260002009E
:100240007047000080B500F013FA40F20000C2F2DF
:10025000000000684DF68361C4F21B31A0FB011061
:10026000800C00F0CBF980BD80B582B00190FFE733
:100270000198411E019128B1FFE74FF47A7000F018
:1002800003F8F5E702B080BD81B00090009840F21D
:100290006801C2F200010860FFE740F26800C2F2A4
:1002A0000000006808B1FFE7F7E701B07047000001
:1002B00080B582B001210091084600F0EDF8009968
:1002C000082000F0E9F80320ADF8040010218DF8B3
:1002D00007108DF8060040F60040C4F2010001A9A5
:1002E00000F002F802B080BD88B0079006910020AF
:1002F0000590049003900290019000900698C078B9
:1003000000F00F0005900698C078C006002806D5BA
:10031000FFE706988178059808430590FFE706985F
:10032000007800284BD0FFE7079800680190002074
:100330000390FFE7039807283DD8FFE703990120C2
:10034000884002900698008802990840049004981A
:10035000029988422AD1FFE703988000029002990F
:100360000F208840009000990198884301900598DB
:10037000029900FA01F10198084301900698C078AB
:10038000282806D1FFE70399012088400799486192
:100390000BE00698C078482806D1FFE703990120B2
:1003A000884007990861FFE7FFE7FFE7FFE7039849
:1003B00001300390BEE7019807990860FFE70698AF
:1003C0000088B0F5807F50DBFFE707984068019018
:1003D00000200390FFE70398072842D8FFE703981F
:1003E00000F10801012088400290069800880299D7
:1003F000084004900498029988422DD1FFE70398A1
:100400008000029002990F20884000900099019886
:10041000884301900598029900FA01F10198084378
:1004200001900698C078282808D1FFE7039800F1CA
:1004300008010120884007994861FFE70698C078C5
:10044000482808D1FFE7039800F1080101208840FF
:1004500007990861FFE7FFE7FFE703980130039082
:10046000B9E7019807994860FFE708B070470000B6
:1004700082B00190ADF80210BDF802000199486108
:1004800002B0704782B00190ADF80210BDF80200D2
:100490000199086102B0704782B001908DF8031095
:1004A0009DF8030048B1FFE7019A41F21801C4F238
:1004B000020108681043086008E0019A41F218013F
:1004C000C4F20201086890430860FFE702B0704779
:1004D00080B500F001F880BD84B000200390029048
:1004E00041F20001C4F20201086840F48030086063
:1004F000FFE741F20000C4F20200006800F400309F
:100500000290039801300390FFE7029900200190C8
:1005100039B9FFE70398B0F5A06018BF012001903A
:10052000FFE70198C0070028E3D1FFE741F2000090
:10053000C4F2020000688003002803D5FFE7012011
:10054000029002E000200290FFE70298012851D1BA
:10055000FFE742F20001C4F20201086840F0100017
:100560000860086820F007000860086840F0020092
:10057000086041F20401C4F20201009108680860B9
:1005800008680860086840F480600860086820F423
:100590007C100860086840F4E810086041F200012F
:1005A000C4F20201086840F080700860FFE741F281
:1005B0000000C4F2020000688001002801D4FFE7B7
:1005C000F5E741F20401C4F20201086820F00300DB
:1005D0000860086840F002000860FFE741F204008C
:1005E000C4F20200006800F00C00082801D0FFE708
:1005F000F4E700E0FFE704B07047000080B582B088
:10060000009000980138B0F1807F03D3FFE701200C
:10061000019019E0009801384EF21401CEF2000169
:1006200008604FF0FF300F2100F0E8F84EF218019B
:10063000CEF20001002008604EF21002CEF200025D
:10064000072111600190FFE7019802B080BD000012
:1006500040F26800C2F20000006840B1FFE740F2DB
:100660006801C2F20001086801380860FFE77047BE
:1006700084B0002003900290019041F20400C4F283
:100680000200006800F00C0003900398009040B155
:10069000FFE7009804280ED0FFE70098082814D040
:1006A00056E040F20001C2F2000141F20020C0F227
:1006B0007A00086056E040F20001C2F2000141F207
:1006C0000020C0F27A0008604CE041F20400C4F25D
:1006D0000200016801F470110291006800F480309A
:1006E00001900299022000EB91400290019860B9BC
:1006F000FFE7029840F60011C0F23D01484340F286
:100700000001C2F20001086021E041F20400C4F2DD
:1007100002000068800300280CD5FFE7029840F62D
:100720000011C0F23D01484340F20001C2F2000155
:1007300008600BE0029841F20021C0F27A014843C0
:1007400040F20001C2F200010860FFE7FFE709E0A4
:1007500040F20001C2F2000141F20020C0F27A0032
:100760000860FFE741F20400C4F202000068C0B272
:10077000010940F69C00C0F60000405C0390039A1B
:1007800040F20001C2F200010868D040086004B0E5
:100790007047000080B541F20002C4F20202106806
:1007A00040F00100106041F20401C4F20201086847
:1007B0000023CFF6FF031840086010684FF6FF7360
:1007C000CFF6F66318401060106820F480201060A7
:1007D000086820F4FE00086041F20801C4F202013A
:1007E0004FF41F000860FFF773FE4EF60851CEF27B
:1007F00000014FF00060086080BD000082B08DF8FD
:10080000070000919DF9070000280AD4FFE700982F
:1008100000019DF907104EF20042CEF2000288540A
:100820000BE0009800019DF8071001F00F014EF653
:100830001452CEF200028854FFE702B07047000065
:1008400080B582B000200190FFF7FCFCFFF730FD7F
:10085000FFE740F60040C4F201000090012100F0E3
:1008600005F80098022100F001F8F2E780B584B0A5
:100870000390ADF80A100398BDF80A10FFF7F8FDD1
:1008800064200190FFF7F0FC0398BDF80A10FFF711
:10089000F9FD0198FFF7E8FC04B080BD00000000FE
:1008A000000000000102030406070809CC08000844
:1008B000000000200400000028010008D008000803
:1008C00008000020680600004401000800A24A0455
:040000050800018965
:00000001FF
